{
  "_format": "hh-sol-artifact-1",
  "contractName": "Fiverr",
  "sourceName": "contracts/Fiverr.sol",
  "abi": [
    {
      "inputs": [
        {
          "internalType": "uint256",
          "name": "jobId",
          "type": "uint256"
        }
      ],
      "name": "applyForJob",
      "outputs": [],
      "stateMutability": "nonpayable",
      "type": "function"
    },
    {
      "inputs": [
        {
          "internalType": "uint256",
          "name": "jobId",
          "type": "uint256"
        }
      ],
      "name": "closeJob",
      "outputs": [],
      "stateMutability": "nonpayable",
      "type": "function"
    },
    {
      "inputs": [],
      "name": "getJobs",
      "outputs": [
        {
          "components": [
            {
              "internalType": "uint256",
              "name": "id",
              "type": "uint256"
            },
            {
              "internalType": "address",
              "name": "creator",
              "type": "address"
            },
            {
              "internalType": "bytes",
              "name": "company",
              "type": "bytes"
            },
            {
              "internalType": "bytes",
              "name": "description",
              "type": "bytes"
            },
            {
              "internalType": "enum Fiverr.JobTypes",
              "name": "jobType",
              "type": "uint8"
            },
            {
              "internalType": "uint256",
              "name": "price",
              "type": "uint256"
            },
            {
              "internalType": "uint256",
              "name": "date",
              "type": "uint256"
            },
            {
              "internalType": "bool",
              "name": "isOpen",
              "type": "bool"
            }
          ],
          "internalType": "struct Fiverr.Job[]",
          "name": "",
          "type": "tuple[]"
        }
      ],
      "stateMutability": "view",
      "type": "function"
    },
    {
      "inputs": [],
      "name": "getTalents",
      "outputs": [
        {
          "components": [
            {
              "internalType": "uint256",
              "name": "id",
              "type": "uint256"
            },
            {
              "internalType": "address",
              "name": "addr",
              "type": "address"
            },
            {
              "internalType": "enum Fiverr.WhoAreYou",
              "name": "role",
              "type": "uint8"
            }
          ],
          "internalType": "struct Fiverr.User[]",
          "name": "",
          "type": "tuple[]"
        }
      ],
      "stateMutability": "view",
      "type": "function"
    },
    {
      "inputs": [
        {
          "internalType": "bytes",
          "name": "company",
          "type": "bytes"
        },
        {
          "internalType": "bytes",
          "name": "description",
          "type": "bytes"
        },
        {
          "internalType": "enum Fiverr.JobTypes",
          "name": "jobType",
          "type": "uint8"
        },
        {
          "internalType": "uint256",
          "name": "price",
          "type": "uint256"
        }
      ],
      "name": "listJob",
      "outputs": [],
      "stateMutability": "nonpayable",
      "type": "function"
    },
    {
      "inputs": [
        {
          "internalType": "enum Fiverr.WhoAreYou",
          "name": "_role",
          "type": "uint8"
        }
      ],
      "name": "register",
      "outputs": [],
      "stateMutability": "nonpayable",
      "type": "function"
    }
  ],
  "bytecode": "0x6080604052348015600f57600080fd5b506120cc8061001f6000396000f3fe608060405234801561001057600080fd5b50600436106100625760003560e01c8063115d4394146100675780631e01abca14610083578063249003261461009f57806361d689fa146100bd57806368581ebd146100d9578063e0c94ae5146100f7575b600080fd5b610081600480360381019061007c919061142c565b610113565b005b61009d600480360381019061009891906114cb565b6103d1565b005b6100a76104a5565b6040516100b491906116b0565b60405180910390f35b6100d760048036038101906100d291906116f7565b610817565b005b6100e1610a82565b6040516100ee919061197f565b60405180910390f35b610111600480360381019061010c91906114cb565b610d2a565b005b600260003373ffffffffffffffffffffffffffffffffffffffff1673ffffffffffffffffffffffffffffffffffffffff16815260200190815260200160002060009054906101000a900460ff1661019f576040517f08c379a0000000000000000000000000000000000000000000000000000000008152600401610196906119fe565b60405180910390fd5b6001808111156101b2576101b1611574565b5b600160003373ffffffffffffffffffffffffffffffffffffffff1673ffffffffffffffffffffffffffffffffffffffff16815260200190815260200160002060010160149054906101000a900460ff16600181111561021457610213611574565b5b14610254576040517f08c379a000000000000000000000000000000000000000000000000000000000815260040161024b90611a6a565b60405180910390fd5b60405180610100016040528060075481526020013373ffffffffffffffffffffffffffffffffffffffff1681526020018581526020018481526020018360028111156102a3576102a2611574565b5b81526020018281526020014281526020016001151581525060008060075481526020019081526020016000206000820151816000015560208201518160010160006101000a81548173ffffffffffffffffffffffffffffffffffffffff021916908373ffffffffffffffffffffffffffffffffffffffff16021790555060408201518160020190816103359190611c96565b50606082015181600301908161034b9190611c96565b5060808201518160040160006101000a81548160ff0219169083600281111561037757610376611574565b5b021790555060a0820151816005015560c0820151816006015560e08201518160070160006101000a81548160ff021916908315150217905550905050600760008154809291906103c690611d97565b919050555050505050565b3373ffffffffffffffffffffffffffffffffffffffff1660008083815260200190815260200160002060010160009054906101000a900473ffffffffffffffffffffffffffffffffffffffff1673ffffffffffffffffffffffffffffffffffffffff1614610474576040517f08c379a000000000000000000000000000000000000000000000000000000000815260040161046b90611e2b565b60405180910390fd5b600080600083815260200190815260200160002060070160006101000a81548160ff02191690831515021790555050565b60606000805b60058054905081101561058d57600060018111156104cc576104cb611574565b5b60016000600584815481106104e4576104e3611e4b565b5b9060005260206000200160009054906101000a900473ffffffffffffffffffffffffffffffffffffffff1673ffffffffffffffffffffffffffffffffffffffff1673ffffffffffffffffffffffffffffffffffffffff16815260200190815260200160002060010160149054906101000a900460ff16600181111561056c5761056b611574565b5b0361058057818061057c90611d97565b9250505b80806001019150506104ab565b5060008167ffffffffffffffff8111156105aa576105a96112a6565b5b6040519080825280602002602001820160405280156105e357816020015b6105d06111bf565b8152602001906001900390816105c85790505b5090506000805b60058054905081101561080d576000600181111561060b5761060a611574565b5b600160006005848154811061062357610622611e4b565b5b9060005260206000200160009054906101000a900473ffffffffffffffffffffffffffffffffffffffff1673ffffffffffffffffffffffffffffffffffffffff1673ffffffffffffffffffffffffffffffffffffffff16815260200190815260200160002060010160149054906101000a900460ff1660018111156106ab576106aa611574565b5b036108005760016000600583815481106106c8576106c7611e4b565b5b9060005260206000200160009054906101000a900473ffffffffffffffffffffffffffffffffffffffff1673ffffffffffffffffffffffffffffffffffffffff1673ffffffffffffffffffffffffffffffffffffffff168152602001908152602001600020604051806060016040529081600082015481526020016001820160009054906101000a900473ffffffffffffffffffffffffffffffffffffffff1673ffffffffffffffffffffffffffffffffffffffff1673ffffffffffffffffffffffffffffffffffffffff1681526020016001820160149054906101000a900460ff1660018111156107bd576107bc611574565b5b60018111156107cf576107ce611574565b5b815250508383815181106107e6576107e5611e4b565b5b602002602001018190525081806107fc90611d97565b9250505b80806001019150506105ea565b5081935050505090565b600260003373ffffffffffffffffffffffffffffffffffffffff1673ffffffffffffffffffffffffffffffffffffffff16815260200190815260200160002060009054906101000a900460ff16156108a4576040517f08c379a000000000000000000000000000000000000000000000000000000000815260040161089b90611ec6565b60405180910390fd5b604051806060016040528060065481526020013373ffffffffffffffffffffffffffffffffffffffff1681526020018260018111156108e6576108e5611574565b5b815250600160003373ffffffffffffffffffffffffffffffffffffffff1673ffffffffffffffffffffffffffffffffffffffff1681526020019081526020016000206000820151816000015560208201518160010160006101000a81548173ffffffffffffffffffffffffffffffffffffffff021916908373ffffffffffffffffffffffffffffffffffffffff16021790555060408201518160010160146101000a81548160ff021916908360018111156109a4576109a3611574565b5b02179055509050506001600260003373ffffffffffffffffffffffffffffffffffffffff1673ffffffffffffffffffffffffffffffffffffffff16815260200190815260200160002060006101000a81548160ff0219169083151502179055506005339080600181540180825580915050600190039060005260206000200160009091909190916101000a81548173ffffffffffffffffffffffffffffffffffffffff021916908373ffffffffffffffffffffffffffffffffffffffff16021790555060066000815480929190610a7a90611d97565b919050555050565b6060600060075467ffffffffffffffff811115610aa257610aa16112a6565b5b604051908082528060200260200182016040528015610adb57816020015b610ac8611208565b815260200190600190039081610ac05790505b50905060005b600754811015610d225760008082815260200190815260200160002060405180610100016040529081600082015481526020016001820160009054906101000a900473ffffffffffffffffffffffffffffffffffffffff1673ffffffffffffffffffffffffffffffffffffffff1673ffffffffffffffffffffffffffffffffffffffff168152602001600282018054610b7990611ab9565b80601f0160208091040260200160405190810160405280929190818152602001828054610ba590611ab9565b8015610bf25780601f10610bc757610100808354040283529160200191610bf2565b820191906000526020600020905b815481529060010190602001808311610bd557829003601f168201915b50505050508152602001600382018054610c0b90611ab9565b80601f0160208091040260200160405190810160405280929190818152602001828054610c3790611ab9565b8015610c845780601f10610c5957610100808354040283529160200191610c84565b820191906000526020600020905b815481529060010190602001808311610c6757829003601f168201915b505050505081526020016004820160009054906101000a900460ff166002811115610cb257610cb1611574565b5b6002811115610cc457610cc3611574565b5b815260200160058201548152602001600682015481526020016007820160009054906101000a900460ff161515151581525050828281518110610d0a57610d09611e4b565b5b60200260200101819052508080600101915050610ae1565b508091505090565b600260003373ffffffffffffffffffffffffffffffffffffffff1673ffffffffffffffffffffffffffffffffffffffff16815260200190815260200160002060009054906101000a900460ff16610db6576040517f08c379a0000000000000000000000000000000000000000000000000000000008152600401610dad906119fe565b60405180910390fd5b6000806001811115610dcb57610dca611574565b5b600160003373ffffffffffffffffffffffffffffffffffffffff1673ffffffffffffffffffffffffffffffffffffffff16815260200190815260200160002060010160149054906101000a900460ff166001811115610e2d57610e2c611574565b5b14610e6d576040517f08c379a0000000000000000000000000000000000000000000000000000000008152600401610e6490611f32565b60405180910390fd5b6007548210610eb1576040517f08c379a0000000000000000000000000000000000000000000000000000000008152600401610ea890611f9e565b60405180910390fd5b60008083815260200190815260200160002060070160009054906101000a900460ff16610f13576040517f08c379a0000000000000000000000000000000000000000000000000000000008152600401610f0a9061200a565b60405180910390fd5b600460003373ffffffffffffffffffffffffffffffffffffffff1673ffffffffffffffffffffffffffffffffffffffff16815260200190815260200160002060009054906101000a900460ff1615610fa0576040517f08c379a0000000000000000000000000000000000000000000000000000000008152600401610f9790612076565b60405180910390fd5b600360003373ffffffffffffffffffffffffffffffffffffffff1673ffffffffffffffffffffffffffffffffffffffff1681526020019081526020016000206040518060a0016040528060085481526020013373ffffffffffffffffffffffffffffffffffffffff1681526020016000600181111561102257611021611574565b5b815260200160008086815260200190815260200160002060040160009054906101000a900460ff16600281111561105c5761105b611574565b5b81526020018481525090806001815401808255809150506001900390600052602060002090600302016000909190919091506000820151816000015560208201518160010160006101000a81548173ffffffffffffffffffffffffffffffffffffffff021916908373ffffffffffffffffffffffffffffffffffffffff16021790555060408201518160010160146101000a81548160ff0219169083600181111561110a57611109611574565b5b021790555060608201518160010160156101000a81548160ff0219169083600281111561113a57611139611574565b5b02179055506080820151816002015550506001600460003373ffffffffffffffffffffffffffffffffffffffff1673ffffffffffffffffffffffffffffffffffffffff16815260200190815260200160002060006101000a81548160ff021916908315150217905550600860008154809291906111b690611d97565b91905055505050565b604051806060016040528060008152602001600073ffffffffffffffffffffffffffffffffffffffff1681526020016000600181111561120257611201611574565b5b81525090565b60405180610100016040528060008152602001600073ffffffffffffffffffffffffffffffffffffffff16815260200160608152602001606081526020016000600281111561125a57611259611574565b5b815260200160008152602001600081526020016000151581525090565b6000604051905090565b600080fd5b600080fd5b600080fd5b600080fd5b6000601f19601f8301169050919050565b7f4e487b7100000000000000000000000000000000000000000000000000000000600052604160045260246000fd5b6112de82611295565b810181811067ffffffffffffffff821117156112fd576112fc6112a6565b5b80604052505050565b6000611310611277565b905061131c82826112d5565b919050565b600067ffffffffffffffff82111561133c5761133b6112a6565b5b61134582611295565b9050602081019050919050565b82818337600083830152505050565b600061137461136f84611321565b611306565b9050828152602081018484840111156113905761138f611290565b5b61139b848285611352565b509392505050565b600082601f8301126113b8576113b761128b565b5b81356113c8848260208601611361565b91505092915050565b600381106113de57600080fd5b50565b6000813590506113f0816113d1565b92915050565b6000819050919050565b611409816113f6565b811461141457600080fd5b50565b60008135905061142681611400565b92915050565b6000806000806080858703121561144657611445611281565b5b600085013567ffffffffffffffff81111561146457611463611286565b5b611470878288016113a3565b945050602085013567ffffffffffffffff81111561149157611490611286565b5b61149d878288016113a3565b93505060406114ae878288016113e1565b92505060606114bf87828801611417565b91505092959194509250565b6000602082840312156114e1576114e0611281565b5b60006114ef84828501611417565b91505092915050565b600081519050919050565b600082825260208201905092915050565b6000819050602082019050919050565b61152d816113f6565b82525050565b600073ffffffffffffffffffffffffffffffffffffffff82169050919050565b600061155e82611533565b9050919050565b61156e81611553565b82525050565b7f4e487b7100000000000000000000000000000000000000000000000000000000600052602160045260246000fd5b600281106115b4576115b3611574565b5b50565b60008190506115c5826115a3565b919050565b60006115d5826115b7565b9050919050565b6115e5816115ca565b82525050565b6060820160008201516116016000850182611524565b5060208201516116146020850182611565565b50604082015161162760408501826115dc565b50505050565b600061163983836115eb565b60608301905092915050565b6000602082019050919050565b600061165d826114f8565b6116678185611503565b935061167283611514565b8060005b838110156116a357815161168a888261162d565b975061169583611645565b925050600181019050611676565b5085935050505092915050565b600060208201905081810360008301526116ca8184611652565b905092915050565b600281106116df57600080fd5b50565b6000813590506116f1816116d2565b92915050565b60006020828403121561170d5761170c611281565b5b600061171b848285016116e2565b91505092915050565b600081519050919050565b600082825260208201905092915050565b6000819050602082019050919050565b600081519050919050565b600082825260208201905092915050565b60005b8381101561178a57808201518184015260208101905061176f565b60008484015250505050565b60006117a182611750565b6117ab818561175b565b93506117bb81856020860161176c565b6117c481611295565b840191505092915050565b600381106117e0576117df611574565b5b50565b60008190506117f1826117cf565b919050565b6000611801826117e3565b9050919050565b611811816117f6565b82525050565b60008115159050919050565b61182c81611817565b82525050565b60006101008301600083015161184b6000860182611524565b50602083015161185e6020860182611565565b50604083015184820360408601526118768282611796565b915050606083015184820360608601526118908282611796565b91505060808301516118a56080860182611808565b5060a08301516118b860a0860182611524565b5060c08301516118cb60c0860182611524565b5060e08301516118de60e0860182611823565b508091505092915050565b60006118f58383611832565b905092915050565b6000602082019050919050565b600061191582611724565b61191f818561172f565b93508360208202850161193185611740565b8060005b8581101561196d578484038952815161194e85826118e9565b9450611959836118fd565b925060208a01995050600181019050611935565b50829750879550505050505092915050565b60006020820190508181036000830152611999818461190a565b905092915050565b600082825260208201905092915050565b7f55736572206e6f74207265676973746572656400000000000000000000000000600082015250565b60006119e86013836119a1565b91506119f3826119b2565b602082019050919050565b60006020820190508181036000830152611a17816119db565b9050919050565b7f4f6e6c79204a6f62204d616e61676572732063616e20706f7374206a6f627300600082015250565b6000611a54601f836119a1565b9150611a5f82611a1e565b602082019050919050565b60006020820190508181036000830152611a8381611a47565b9050919050565b7f4e487b7100000000000000000000000000000000000000000000000000000000600052602260045260246000fd5b60006002820490506001821680611ad157607f821691505b602082108103611ae457611ae3611a8a565b5b50919050565b60008190508160005260206000209050919050565b60006020601f8301049050919050565b600082821b905092915050565b600060088302611b4c7fffffffffffffffffffffffffffffffffffffffffffffffffffffffffffffffff82611b0f565b611b568683611b0f565b95508019841693508086168417925050509392505050565b6000819050919050565b6000611b93611b8e611b89846113f6565b611b6e565b6113f6565b9050919050565b6000819050919050565b611bad83611b78565b611bc1611bb982611b9a565b848454611b1c565b825550505050565b600090565b611bd6611bc9565b611be1818484611ba4565b505050565b5b81811015611c0557611bfa600082611bce565b600181019050611be7565b5050565b601f821115611c4a57611c1b81611aea565b611c2484611aff565b81016020851015611c33578190505b611c47611c3f85611aff565b830182611be6565b50505b505050565b600082821c905092915050565b6000611c6d60001984600802611c4f565b1980831691505092915050565b6000611c868383611c5c565b9150826002028217905092915050565b611c9f82611750565b67ffffffffffffffff811115611cb857611cb76112a6565b5b611cc28254611ab9565b611ccd828285611c09565b600060209050601f831160018114611d005760008415611cee578287015190505b611cf88582611c7a565b865550611d60565b601f198416611d0e86611aea565b60005b82811015611d3657848901518255600182019150602085019450602081019050611d11565b86831015611d535784890151611d4f601f891682611c5c565b8355505b6001600288020188555050505b505050505050565b7f4e487b7100000000000000000000000000000000000000000000000000000000600052601160045260246000fd5b6000611da2826113f6565b91507fffffffffffffffffffffffffffffffffffffffffffffffffffffffffffffffff8203611dd457611dd3611d68565b5b600182019050919050565b7f4f6e6c792063726561746f722063616e20636c6f736520746865206a6f627300600082015250565b6000611e15601f836119a1565b9150611e2082611ddf565b602082019050919050565b60006020820190508181036000830152611e4481611e08565b9050919050565b7f4e487b7100000000000000000000000000000000000000000000000000000000600052603260045260246000fd5b7f5573657220616c72656164792072656769737465726564000000000000000000600082015250565b6000611eb06017836119a1565b9150611ebb82611e7a565b602082019050919050565b60006020820190508181036000830152611edf81611ea3565b9050919050565b7f4f6e6c792074616c656e742063616e20676574206a6f62730000000000000000600082015250565b6000611f1c6018836119a1565b9150611f2782611ee6565b602082019050919050565b60006020820190508181036000830152611f4b81611f0f565b9050919050565b7f496e76616c6964206a6f62204944000000000000000000000000000000000000600082015250565b6000611f88600e836119a1565b9150611f9382611f52565b602082019050919050565b60006020820190508181036000830152611fb781611f7b565b9050919050565b7f4a6f62206973206e6f74206f70656e0000000000000000000000000000000000600082015250565b6000611ff4600f836119a1565b9150611fff82611fbe565b602082019050919050565b6000602082019050818103600083015261202381611fe7565b9050919050565b7f416c7265616479206170706c6965640000000000000000000000000000000000600082015250565b6000612060600f836119a1565b915061206b8261202a565b602082019050919050565b6000602082019050818103600083015261208f81612053565b905091905056fea2646970667358221220fceec7dd8ed77af0bc2fd37cd37c02b0fd76303fab7215d1d7483ad117473c4e64736f6c634300081c0033",
  "linkReferences": {},
  "deployedLinkReferences": {}
}